S00D0000536E616B652E7372656325
S11300000C94A7000C946A030C9415030C94C4007C
S11300100C94C4000C94C4000C94C4000C94C4004C
S11300200C94C4000C94C4000C94C4000C94C4003C
S11300300C94C4000C94C4000C94C4000C94C4002C
S11300400C94C4000C94C4000C94C4000C94C4001C
S11300500C94C40000407A10F35A00A0724E1809A0
S11300600010A5D4E80000E87648170000E40B541B
S1130070020000CA9A3B000000E1F50500008096EA
S11300809800000040420F000000A086010000001C
S1130090102700000000E8030000000064000000D6
S11300A000000A00000000000100000000002C769F
S11300B0D888DC674F0823DFC1DFAE59E1B1B796BA
S11300C0E5E3E453C63AE651997696E8E6C2842617
S11300D0EB898C9B62ED407C6FFCEFBC9C9F40F2F3
S11300E0BAA56FA5F490055A2AF75C936B6CF9676F
S11300F06DC11BFCE0E40D47FEF520E6B500D0ED34
S1130100902E0300943577050080841E080000209B
S11301104E0A000000C80C333333330F986E128339
S11301201141EF8D2114893BE65516CFFEE6DB180D
S1130130D1844B381BF77C1D901DA4BBE4242032D2
S113014084725E228100C9F124ECA1E53D271124CB
S11301501FBECFE5D8E0DEBFCDBF10E0A0E6B0E023
S1130160E8EFF2E102C005900D92AC37B107D9F780
S113017022E0ACE7B0E001C01D92A231B207E1F782
S11301800E9452060C947A090C940000672B09F023
S11301909FC0009711F4D89808958130910511F407
S11301A0D99808958230910511F4DA98089583302E
S11301B0910511F4DB9808958430910511F4DC98CD
S11301C008958530910511F4DD98089586309105E0
S11301D011F4DE9808958730910511F4DF9808959D
S11301E08A30910511F4C09808958B30910511F46B
S11301F0C19808958C30910511F4C29808958D30FA
S1130200910511F4C39808958E30910511F4C498A2
S113021008958F30910511F4C598089580319105A2
S113022011F4C69808958131910511F4C798089581
S11302308431910511F4A89808958531910511F43C
S1130240A99808958631910511F4AA9808958731E3
S1130250910511F4AB9808958831910511F4AC9887
S113026008958931910511F4AD9808958A31910565
S113027011F4AE9808958B31910511F4AF98089557
S11302808E31910511F4909808958F31910511F4F0
S1130290919808958032910511F4929808958132CD
S11302A0910511F4939808958232910511F494986C
S11302B008958332910511F4959808958432910537
S11302C011F496980895859709F09FC0979808951A
S11302D0009711F4D89A08958130910511F4D99AB0
S11302E008958230910511F4DA9A089583309105C6
S11302F011F4DB9A08958430910511F4DC9A089581
S11303008530910511F4DD9A08958630910511F434
S1130310DE9A08958730910511F4DF9A08958A30A2
S1130320910511F4C09A08958B30910511F4C19A86
S113033008958C30910511F4C29A08958D30910579
S113034011F4C39A08958E30910511F4C49A089556
S11303508F30910511F4C59A08958031910511F4F7
S1130360C69A08958131910511F4C79A089584318C
S1130370910511F4A89A08958531910511F4A99A6B
S113038008958631910511F4AA9A0895873191054B
S113039011F4AB9A08958831910511F4AC9A08953B
S11303A08931910511F4AD9A08958A31910511F4BA
S11303B0AE9A08958B31910511F4AF9A08958E3158
S11303C0910511F4909A08958F31910511F4919A41
S11303D008958032910511F4929A0895813291051D
S11303E011F4939A08958232910511F4949A089520
S11303F08332910511F4959A08958432910511F48C
S1130400969A0895859709F4979A0895CF93C82FDB
S113041080FF07C061E070E088E190E00E94C600C0
S113042006C060E070E088E190E00E94C600C1FF71
S113043007C061E070E089E190E00E94C60006C058
S113044060E070E089E190E00E94C600C2FF07C04E
S113045061E070E08AE190E00E94C60006C060E0BE
S113046070E08AE190E00E94C600C3FF07C061E02B
S113047070E08BE190E00E94C60006C060E070E08E
S11304808BE190E00E94C600CF910895CF93C82FCE
S113049060E070E086E190E00E94C6008C2F0E942C
S11304A0060261E070E087E190E00E94C60089EFF7
S11304B090E00197F1F700C0000060E070E087E190
S11304C090E00E94C60089EF90E00197F1F700C028
S11304D00000CF91089580E00E94460281E00E94CE
S11304E046020895CF93C62F813059F480E8860FD1
S11304F082958F700E9446028C2F8F700E94460254
S11305000CC0823051F480EC860F82958F700E946B
S113051046028C2F8F700E944602CF91089580E08E
S11305200E94060287E893E10197F1F700C00000FA
S113053083E00E94460281EE94E00197F1F700C047
S1130540000083E00E9446028DEB9AE00197F1F7E8
S113055000C0000083E00E94460282E00E9446023E
S113056082E00E94460288E00E94460280E00E94E7
S113057046028CE00E94460280E00E94460286E029
S11305800E9446020895CF93C82F61E070E086E18F
S113059090E00E94C6008C2F82958F700E94060204
S11305A061E070E087E190E00E94C60089EF90E08E
S11305B00197F1F700C0000060E070E087E190E08F
S11305C00E94C60089EF90E00197F1F700C0000097
S11305D08C2F8F700E94060261E070E087E190E04A
S11305E00E94C60089EF90E00197F1F700C0000077
S11305F060E070E087E190E00E94C60089EF90E03F
S11306000197F1F700C00000CF910895CF93DF93D5
S1130610EC018881882331F021960E94C3028991DC
S11306208111FBCFDF91CF9108951F920F920FB6E6
S11306300F9211242F933F934F935F936F937F9364
S11306408F939F93AF93BF93EF93FF938AB78F7763
S11306508ABFE0916A00F0916B00DF01AA0FBB1F13
S1130660AA0FBB1FA258BF4F12962D913C9113970E
S1130670EE0FFF1FEE0FFF1FE658FF4F828193819D
S11306806D917C91408151816417750731F443E089
S113069050E050936900409368002817390731F4FB
S11306A084E090E090936900809368008AB7806842
S11306B08ABFFF91EF91BF91AF919F918F917F91ED
S11306C06F915F914F913F912F910F900FBE0F90BB
S11306D01F9018951F920F920FB60F9211242F930B
S11306E03F934F935F936F937F938F939F93AF93B6
S11306F0BF93EF93FF938AB78F7B8ABFE0916A0021
S1130700F0916B00DF01AA0FBB1FAA0FBB1FA258F9
S1130710BF4F12962D913C911397EE0FFF1FEE0FD2
S1130720FF1FE658FF4F828193816D917C91408138
S113073051816417750731F441E050E0509369002A
S1130740409368002817390731F482E090E09093D1
S11307506900809368008AB780648ABFFF91EF9133
S1130760BF91AF919F918F917F916F915F914F91C5
S11307703F912F910F900FBE0F901F901895EF92FD
S1130780FF920F931F93CF93DF9340916200509198
S11307906300CA0187709078992324F40197886FC5
S11307A09F6F01969C016091600070916100CB0184
S11307B087709078992324F40197886F9F6F01962E
S11307C030936700209366009093650080936400E3
S11307D0E7E0F0E0E81BF90B81E090E002C0880F4D
S11307E0991FEA95E2F7F82FD901AC58BF4FEC9165
S11307F08E23B9F107E010E0C1E0D0E04D5F5F4F18
S11308006E5F7F4FCA0187709078992324F4019713
S1130810886F9F6F01969C01CB0187709078992314
S113082024F40197886F9F6F0196E82EF92EF80142
S1130830E81BF90BCF01FE0102C0EE0FFF1F8A95E2
S1130840E2F7CF01FE2FD901AC58BF4FEC918E23B4
S1130850A9F63093670020936600E0926400F0925A
S113086065004D5F5F4F5093630040936200CB017E
S113087002969093610080936000D901AC58BF4FF9
S1130880EF0FEC9310927F0010927E00DF91CF91D6
S11308901F910F91FF90EF9008956F927F928F9226
S11308A09F92AF92BF92CF92DF92EF92FF920F93FB
S11308B01F93CF93DF93CDB7DEB7C456D1090FB6DC
S11308C0F894DEBF0FBECDBFE2E8F0E080809180F7
S11308D04281538187E090E0841B950B21E030E056
S11308E0590102C0AA0CBB1C8A95E2F7F401EC582A
S11308F0FF4F80818A19808380916A0090916B00F8
S11309009C012150310912161306A4F4E2E8F0E028
S1130910BC01660F771F660F771F62587F4FC48034
S1130920D580E680F780C192D192E192F192E617E8
S1130930F707A9F76091680070916900623071054A
S1130940D9F4DC01AA0FBB1FAA0FBB1FA658BF4FC7
S11309500D911C911197F901EE0FFF1FEE0FFF1F70
S1130960EE57FF4F1183008312960D90BC91A02D7A
S11309701196B383A2833EC061307105E1F4F9019D
S1130980EE0FFF1FEE0FFF1FEE57FF4FDC01AA0F04
S1130990BB1FAA0FBB1FA658BF4F6D917C91119727
S11309A0615071097183608312966D917C911397E4
S11309B0738362833DC063307105E1F4F901EE0F86
S11309C0FF1FEE0FFF1FEE57FF4FDC01AA0FBB1FE7
S11309D0AA0FBB1FA658BF4F6D917C9111976F5FF3
S11309E07F4F7183608312966D917C91139773830B
S11309F062831EC064307105D9F4DC01AA0FBB1FE9
S1130A00AA0FBB1FA658BF4F6D917C911197F90196
S1130A10EE0FFF1FEE0FFF1FEE57FF4F7183608332
S1130A2012966D917C91139761507109738362835F
S1130A30F901EE0FFF1FEE0FFF1FEE57FF4FE0808F
S1130A40F18068E0E616F10434F061E070E0709340
S1130A50810060938000F901EE0FFF1FEE0FFF1F6E
S1130A60EE57FF4F6280738068E06616710434F0BD
S1130A7061E070E07093810060938000FF2034F4A3
S1130A8061E070E07093810060938000772034F41B
S1130A9061E070E0709381006093800067E070E033
S1130AA066197709E1E0F0E06F0102C0CC0CDD1CAF
S1130AB06A95E2F76091660070916700E616F706A2
S1130AC0D1F560916400709165006616770699F51A
S1130AD060917C0070917D006B5F7F4F70937D000F
S1130AE060937C0061E070E070937F0060937E000F
S1130AF0BC016F5F7F4F70936B0060936A00332378
S1130B00A4F0880F991F880F991FFC01EE57FF4F1F
S1130B1082E890E03291229112910291048315832C
S1130B2026833783E817F907A9F7E2E8F0E0918212
S1130B308082538342830E946B0261E081E00E94C1
S1130B40720260917C0070917D00072E000C880B6E
S1130B50990B0E94B6068E010F5F1F4F22E042E000
S1130B600E94F106C8010E940603F701EC58FF4FEA
S1130B708081982F9C21A9F0209166003091670014
S1130B80E216F30639F42091640030916500621690
S1130B90730639F081E090E09093810080938000A7
S1130BA013C020917E0030917F002130310539F44B
S1130BB0F401EC58FF4F8081A80EA08205C0F70114
S1130BC0EC58FF4FC80EC082CC59DF4F0FB6F894D3
S1130BD0DEBF0FBECDBFDF91CF911F910F91FF906C
S1130BE0EF90DF90CF90BF90AF909F908F907F90C9
S1130BF06F900895009719F0019739F00CC08BB7E6
S1130C0080648BBF85B7836085BF8BB780688BBFDB
S1130C1085B78C6085BF78940895161617064CF432
S1130C2020E030E0880F811D2F5F3F4F621773076C
S1130C30C9F70895CF92DF92EF92FF920F931F931B
S1130C40CF93DF93C82ED92E8FEF82BBE12CF12CEA
S1130C501BC0BE0181E00E940D068BBBF80181918F
S1130C608F01809588BB89EF90E00197F1F700C070
S1130C7000002196C830D10561F79FEFE91AF90AFF
S1130C80EAE0EE16F10429F00C2D1D2DC0E0D0E0B1
S1130C90E0CFDF91CF911F910F91FF90EF90DF9004
S1130CA0CF900895CF93DF938FEF8ABB87BB11BAA0
S1130CB084BB80E884BF84BF0E948F0280EF85BF1D
S1130CC080E090E00E94FA0581E090E00E94FA053D
S1130CD0E2E8F0E084E090E0918380831382128262
S1130CE09583848321E030E037832683918780874E
S1130CF022E030E0338722879587848783E090E081
S1130D00978786870E94BF030E944D0480917E00CE
S1130D1090917F00019711F40E94BF03809180009D
S1130D2090918100019749F4C4E6D0E08CE690E00C
S1130D300E941A062197D1F712C0CAE0D0E084E7D6
S1130D4090E00E941A062197D1F72FE38DE093E0FB
S1130D50215080409040E1F700C00000D5CF80E0F2
S1130D6090E0DF91CF910895E89409C097FB3EF499
S1130D7090958095709561957F4F8F4F9F4F9923E4
S1130D80A9F0F92F96E9BB279395F6958795779562
S1130D906795B795F111F8CFFAF4BB0F11F460FF22
S1130DA01BC06F5F7F4F8F4F9F4F16C0882311F07A
S1130DB096E911C0772321F09EE8872F762F05C08E
S1130DC0662371F096E8862F70E060E02AF09A9529
S1130DD0660F771F881FDAF7880F9695879597F91E
S1130DE00895EF920F931F93CF93DF93E80147FD8C
S1130DF002C034E001C034E1042E000C550B57FF4F
S1130E0003C0519541955109E32E022F242FAE01C1
S1130E100E941107CE01DF91CF911F910F91EF90A6
S1130E200895A9E0B0E0E7E1F7E00C9449096A010C
S1130E30122FB02E2BE3201720F0FF24F394F00E92
S1130E4002C02CE3F22E0F2D27E0AE014F5F5F4F5F
S1130E500E946B08BC014981842F8970813031F074
S1130E60E1FC06C0E0FE06C090E205C09DE203C0BE
S1130E709BE201C090E05E2D507143FF3CC0911194
S1130E8002C083E001C084E0811718F4212F281BDD
S1130E9001C020E051110BC0F601822F30E28823FB
S1130EA019F031938150FBCFC20ED11C20E099235D
S1130EB029F0D6019C93F60131966F01C601039681
S1130EC0E2FE0AC03EE4D6013C9341E411964C9301
S1130ED0119712963C9306C03EE6F601308341E634
S1130EE041833283FC01322F40E2332309F442C0B0
S1130EF041933150FACF42FF44C0911102C083E0C4
S1130F0001C084E0811718F4212F281B01C020E0C0
S1130F1051110BC0F601822F30E2882319F031936E
S1130F208150FBCFC20ED11C20E0992329F0D601B9
S1130F309C93F60131966F01C6010396E2FE0BC045
S1130F4039E4D6013C933EE411963C93119736E480
S1130F5012963C9307C039E6F60130833EE63183AE
S1130F6036E63283FC01322F40E2332319F04193F9
S1130F703150FBCFFC01E20FF11D10828EEF9FEF89
S1130F80A6C021E030E0911102C020E030E0161646
S1130F9017061CF4FB01319602C0E1E0F0E02E0FCD
S1130FA03F1FBB2021F0EB2DF0E0319602C0E0E0C2
S1130FB0F0E02E0F3F1FE12FF0E02E173F071CF447
S1130FC0121B212F01C020E08E2D887159F4F601E7
S1130FD0822F30E2882319F031938150FBCFC20E67
S1130FE0D11C20E0992329F0D6019C93F601319677
S1130FF06F0151110BC0F601822F90E3882319F081
S113100091938150FBCFC20ED11C20E00F2D060F0F
S11310109A81342F307144FF03C0913309F4015095
S1131020101624F4093018F008E001C001E0AB0107
S113103077FF02C040E050E0FB01E41BF50BA1E0A8
S1131040B0E0AC0FBD1FEA0FFB1F8EE2A82E4B01D0
S1131050801A91080B2D10E01195019511094F3F4D
S1131060BFEF5B0721F4D601AC9211966D016417B2
S113107075072CF08416950614F4818101C080E371
S1131080415051093196D60111967D0140175107FF
S113109024F0D6018C936701E2CF6417750739F405
S11310A0963320F4953319F4311101C081E3F6012C
S11310B08083F701822F90E2882319F09193815065
S11310C0FBCFF701E20FF11D108280E090E029963A
S11310D0ECE00C946509283008F027E03327DA01A6
S11310E0990F311D87FD916000966105710539F4F2
S11310F032602E5F3D9330E32A95E1F708959F3FD8
S113110030F080387105610509F03C5F3C5F3D9328
S1131110913008F08068911DDF93CF931F930F9354
S1131120FF92EF92192F987F9695E92F96959695B1
S1131130E90FFF27E255FF4F99273327EE24FF24B9
S1131140A701E70105900894079428F4360FE71ED9
S1131150F81E491F511D660F771F881F991F06949B
S1131160A1F70590079428F4E70EF81E491F561FAF
S1131170C11D770F881F991F661F0694A1F705905C
S1131180079428F4F80E491F561FC71FD11D880F56
S1131190991F661F771F0694A1F70590079420F402
S11311A0490F561FC71FD81F990F661F771F881F27
S11311B00694A9F784911095177041F0D695C795B8
S11311C057954795F794E7941A95C1F7E4E5F0E04D
S11311D068941590159135916591959105907FE2EC
S11311E07395E118F10A430B560BC90BD009C0F7EC
S11311F0E10CF11E431F561FC91FD01D7EF470332E
S113120011F48A95E6CFE894015030F0080F0AF4FF
S11312100027021708F4202F2395022F7A3328F091
S113122079E37D932A95E9F710C07D932A9589F691
S1131230069497956795379517951794E118F10AD1
S1131240430B560BC90BD00998F023957E917395E7
S11312507A3308F070E37C932013B8F77E917061C1
S11312607D9330F0839571E37D9370E32A95E1F7E4
S11312701124EF90FF900F911F91CF91DF91992747
S113128087FD909508952F923F924F925F926F92AF
S11312907F928F929F92AF92BF92CF92DF92EF9202
S11312A0FF920F931F93CF93DF93CDB7DEB7CA1B83
S11312B0DB0B0FB6F894DEBF0FBECDBF09942A88AE
S11312C0398848885F846E847D848C849B84AA8456
S11312D0B984C884DF80EE80FD800C811B81AA81E3
S11312E0B981CE0FD11D0FB6F894DEBF0FBECDBFAE
S10B12F0ED010895F894FFCF0D
S11312F803000500090009000200040081422418C3
S10F13081824428100000000F0000000E6
S9030000FC
